:100000000C9440000C9468000C9468000C946800F8
:100010000C9468000C9468000C9468000C946800C0
:100020000C9468000C9468000C9468000C946800B0
:100030000C9468000C9468000C9468000C946800A0
:100040000C9468000C9468000C9468000C94680090
:100050000C9468000C9468000C9468000C94680080
:100060000C9468000C9468000C9468000C94680070
:100070000C9468000C9468000C94680033033703F8
:1000800011241FBECFEFD8E0DEBFCDBF11E0A0E04E
:10009000B1E0E4EFF6E002C005900D92A230B107A6
:1000A000D9F721E0A2E0B1E001C01D92AE30B20765
:1000B000E1F710E0CFE3D0E004C02197FE010E94F9
:1000C0006703CE33D107C9F70E94F8020C946D0381
:1000D0000C94000027E0FC01208310927C0086E84D
:1000E00080937A0081B1837881B982B18C6782B9BB
:1000F000089510927A00089580917C00807E80930C
:100100007C0080917C006770862B80937C008091BE
:100110007A00806480937A0080917A0084FFFCCF1B
:1001200080917A00806180937A002091780080919C
:10013000790090E0982F8827820F911D0895FC0187
:1001400088270299839581838827039983958283E1
:1001500088270499839583838827059983958483C9
:1001600088270699839585830895FC0160810E9404
:100170007C009C012857310981E0253B310508F0BE
:1001800080E00895FC0160810E947C009C0181E078
:100190002039314008F480E0089580B190E002C039
:1001A000959587956A95E2F7817008950E949F0062
:1001B00088270499839581110FC0049B05C0882767
:1001C00003998395811108C0882704998395811527
:1001D00019F08827059983950895CF93DF93EC0153
:1001E0000E949F008981811519F08A8181118B817C
:1001F000DF91CF910895CF93DF93EC010E949F0090
:100200008B81811519F08C8181118D81DF91CF91C6
:100210000895CF93DF93EC010E949F009C818D8114
:10022000911511F0811101C0892BDF91CF910895B3
:10023000CF93DF93EC010E949F009A8189819115F1
:1002400011F0811101C0892BDF91CF9108956430A5
:1002500079F030F46230C1F0633071F080E00895DD
:10026000653071F06630D1F7882706998395089537
:10027000882704998395089588270399839508957D
:10028000882705998395089588270299839508956D
:10029000CF93DF93EC010E949F00898181110FC0F1
:1002A0009A81911109C08B81811109C09C819111A2
:1002B00003C08D8191E08927DF91CF91089580E07F
:1002C000FBCFCF93DF93EC010E949F0089818115C2
:1002D00049F08A81811531F08B81811519F08C816B
:1002E00081118D81DF91CF9108958827039983959E
:1002F000811112C088270499839581110DC0882728
:1003000005998395811108C08827029983958111E9
:1003100003C08827069983950895CF93DF93EC0156
:1003200081E0888382E3898380E58A838AE08B8306
:10033000CE0104960E949702CE0105960E946A00A3
:10034000CE010B96DF91CF910C947102CF92DF9288
:10035000EF92FF920F931F93CF93DF93EC017C01F9
:1003600025E0E20EF11C8C010C5F1F4F0B966C0117
:100370008881811109C0DF91CF911F910F91FF906A
:10038000EF90DF90CF900895C7010E94D6008115AD
:1003900029F062E3C8010E94BD02EACFC7010E94B2
:1003A0000901811541F0C6010E94740262E3C8018F
:1003B0000E94D402DDCFC7010E941801811541F0CF
:1003C000C6010E94770262E3C8010E94E602D0CF14
:1003D000C8010E94CF02C6010E947A029FEF29E65F
:1003E00088E1915020408040E1F700C00000188271
:1003F000BFCFCF93DF93EC01249662E3CE010E943E
:10040000BD022FEF89E698E1215080409040E1F74E
:1004100000C00000CE010E94CF022FEF89E698E1D4
:10042000215080409040E1F700C00000DF91CF9163
:10043000089521E0FC0120830895EF92FF921F931D
:10044000CF93DF93EC01162F7C0124E0E20EF11C28
:10045000C7010E94E6028FE79FE422E181509040AD
:100460002040E1F700C000002596CE010E94D60092
:10047000811541F0C701DF91CF911F91FF90EF905F
:100480000C94CF02612FC7010E94E602EECFEF92DB
:10049000FF921F93CF93DF93EC01162F7C0124E092
:1004A000E20EF11CC7010E94D4028FE79FE422E113
:1004B000815090402040E1F700C000002596CE0119
:1004C0000E94D600811541F0C701DF91CF911F91A5
:1004D000FF90EF900C94CF02612FC7010E94D402CD
:1004E000EECF83E084B908952998289A0895289832
:1004F000299A0895289829980895CF93DF93D82FA3
:10050000C92F0E9474028FE99FE00197F1F700C0A4
:1005100000008D2F9C2F0E9477028FE99FE00197AA
:10052000F1F700C00000DF91CF91089508958AB1DE
:10053000806F8AB98BB1806F8BB91092B200E0EBFB
:10054000F0E08081836A8083E1EBF0E08081846069
:10055000808308958AB180638AB98BB180638BB937
:100560002FEF629FC001112464E670E00E943F03F8
:100570006093B3006093B40008958AB180638AB930
:100580005C985D982FEF629FC001112464E670E0D3
:100590000E943F036093B3006093B40008951092EB
:1005A000B3001092B40008958AB180638AB95C9850
:1005B0005D981092B3002FEF629FC001112464E692
:1005C00070E00E943F036093B40008958AB1806395
:1005D0008AB95C985D982FEF629FC001112464E690
:1005E00070E00E943F036093B3001092B40008953E
:1005F00082E091E00E94A60162E382E091E00E9425
:10060000470282E091E00E94190282E091E00E949C
:10061000A60162E382E091E00E941D0282E091E087
:100620000E94190282E091E00E94A60182E091E01E
:100630000E94F90162E382E091E00E94470282E0B9
:1006400091E00E94190282E091E00E94A60182E0FE
:1006500091E00E94F90162E382E091E00E9447028A
:1006600080E090E0089582E091E00C948D018DE0AF
:1006700091E00E94960287E091E00C94790097FB4C
:10068000072E16F4009407D077FD09D00E9453037B
:1006900007FC05D03EF4909581959F4F0895709585
:1006A00061957F4F0895AA1BBB1B51E107C0AA1F8C
:1006B000BB1FA617B70710F0A61BB70B881F991F03
:1006C0005A95A9F780959095BC01CD010895EE0F3C
:1006D000FF1F0590F491E02D099410E0CFE3D0E0E6
:1006E00004C0FE010E9467032196C034D107C9F7F8
:0406F000F894FFCFAC
:0206F400010003
:00000001FF
